:020000020000FC
:0200000048C0F6
:020074002BC09F
:100090008EC00AE00EBF0FEF0DBF37C102E004BDF6
:1000A0000FEF07BD00E600937C000EEB00937A0093
:1000B00003E000937B0001E000937E00089502E0DE
:1000C00005BD089500E005BD06BD08950F930FB767
:1000D0000F930091790009930E948C00A99A0F91C7
:1000E0000FBF0F911895D1E0C0E0F1E0E0E0089576
:1000F000F1E0E0E00895D1E0C0E00895C03801E00B
:10010000D00710F0D1E0C0E00895E03801E0F0073A
:1001100010F0F1E0E0E00895C03801E0D00728F4E5
:10012000C03401E0D00729F402C0D1E0C0E00E9451
:1001300064010895E03801E0F00728F4E03401E0BC
:10014000F00729F402C0F1E0E0E00E9467010895A1
:100150000AE00093B8000E94AE00089580E070E0CD
:10016000089590E80E94B900089590E00E94B900B7
:10017000089505EA0093BC00089504EA0093BC00CA
:1001800008950093BB0005E80093BC00089505ECBA
:100190000093BC00089505E80093BC00089505E9AC
:1001A0000093BC0008950091B900087F08950F9353
:1001B0000FB70F9397FD4AC09030A1F09130B1F086
:1001C0009230C1F09330D1F09430D9F09530E9F00D
:1001D000943431F1963429F0953450F59630C0F4CA
:1001E00060C061C000EA0E94C10059C0082F0E948F
:1001F000C10055C0072F0E94C10051C00E94B90024
:100200004EC001EA0E94C1004AC00E94C70047C018
:100210000091BB0009930E947E000E94C7003FC06E
:100220000091BB0009930E947E000E94CB0037C062
:100230000091BB0009930E947E000E94CF0000E461
:10024000700F00E0801F0E94680129C0903859F0AB
:10025000913869F0923879F0943C01F1933CA8F41C
:10026000933868F41EC000EA0E94C10018C0082F2D
:100270000E94C10014C0072F0E94C10010C001914C
:100280000E94C1000E9485000AC00E94CF0000E4C5
:10029000700F00E0801F0E94690101C004C09395A7
:1002A00002C00E9470010F910FBF0F9118950E941C
:1002B00078000E947B000E94AE000E945F000895BB
:1002C00008950E94620008950E94B1000895089563
:1002D000089572310AE7800710F00E9461010895C5
:1002E0000E9461010895F8940E947E010E947300AB
:1002F0000E944E000E94A8007894089500E80093A0
:10030000610000E00093610008950E947301FFCF37
:00000001FF
